:1000000047C2000062C2000060C200005EC2000081
:100010005CC200005AC2000058C200000C94AA1B27
:1000200054C2000052C200000C9485200C9451214F
:100030000C945A1A4AC2000048C2000046C200008E
:1000400044C2000042C2000040C200003EC20000A4
:100050003CC200000C94D11A38C2000036C2000025
:1000600034C2000032C2000030C200002EC20000C4
:100070002CC200002AC2000028C2000026C20000D4
:1000800024C2000022C2000020C200001EC20000E4
:100090001CC200001AC2000018C2000016C20000F4
:1000A00014C2000012C2000010C200002900350076
:1000B0001E001F00200021002200280000002B004D
:1000C00014001A0008001500170000000000390095
:1000D00004001600070009000A0000000000E1000B
:1000E0001D001B0006001900050000002152E00061
:1000F000E300E2002C0000002A0022522E002D0016
:10010000270026002500240023002A0030002F00AD
:10011000130012000C0018001C0000003100340015
:1001200033000F000E000D000B0000000700E5007B
:100130003800370036001000110000002152E400A2
:10014000E700E6002C000000280022520100010018
:100150000100010001000100010001000100010097
:10016000000000000000000001000000010001008C
:10017000207821782778287801000000010001000C
:100180000100010000000100010000000100010069
:100190000100010001000100010001000100010057
:1001A0000100010001000100010001000100010047
:1001B0000100010001000100010000000100010038
:1001C0000100010001000100010000000100010028
:1001D0000100010001000100010000000100010018
:1001E0000100010001000100010001000100010007
:1001F00001000100010001000100010001000100F7
:100200001E001F002000210022000000010001004C
:100210001E021F0220022102220200000100010032
:1002200001000100010001000100000001000100C7
:1002300001000100010001000100010001000100B6
:100240000100010001000100010001002300240061
:1002500025002600270001000100000023022402DF
:100260002502260227020100010000000100010012
:100270000100010001000100010000000100010077
:100280000100010001000100010001000001010165
:100290000101010101010202020202020202020343
:1002A0000303030303030304040404040404050513
:1002B00005050506060606060707070707080808D6
:1002C00008090909090A0A0A0B0B0B0C0C0C0D0D85
:1002D0000D0E0E0E0F0F0F1010111111121213131D
:1002E0001414151516161717181819191A1A1B1B96
:1002F0001C1D1D1E1E1F20202122222324242526F2
:1003000026272829292A2B2C2D2D2E2F3031323229
:10031000333435363738393A3B3C3D3E3F40414235
:10032000434445464748494A4C4D4E4F505153541B
:10033000555658595A5B5D5E5F61626465666869CF
:100340006B6C6D6F7072737577787A7B7D7E80824F
:10035000838587888A8C8E8F91939596989A9C9E98
:10036000A0A2A3A5A7A9ABADAFB1B3B5B7BABCBEA8
:10037000C0C2C4C6C9CBCDCFD1D4D6D8DBDDDFE275
:10038000E4E7E9EBEEF0F3F5F8FAFDFF1C036E008D
:100390006100790061005F0069006E007300700009
:1003A000690072006500640000001C034E006100DB
:1003B00079006100200049006E0073007000690040
:1003C00072006500640000000403090409023B0098
:1003D000020100A0FA090400000103010100092143
:1003E00011010001224400070581030800010904EE
:1003F0000100010300000009211101000122320067
:10040000070582032000011201000200000008ED30
:10041000FE010001000102000105010980A1018522
:100420000319012AB700150126B70095017510813F
:1004300000C0050C0901A101850419012AA00215BB
:100440000126A002950175108100C005010906A1D1
:1004500001050719E029E7150025019508750181B7
:10046000029501750881010507190029FF1500266D
:10047000FF0095067508810005081901290515007A
:100480002501950575019102950175039101C00043
:1004900011241FBECFEFDAE0DEBFCDBF11E0A0E038
:1004A000B1E0EEE3F8E402C005900D92AA3BB1077B
:1004B000D9F723E0AAEBB1E001C01D92A235B20743
:1004C000E1F70E94CC130C94DF239ACD8330C8F45B
:1004D0006A30B8F44830A8F4E62FF0E09AE0899F3B
:1004E000E00DF11D112483E0EE0FFF1F8A95E1F767
:1004F000E40FF11DEE0FFF1FE455FF4F859195911D
:10050000089581E090E00895E1CF089581E0089595
:1005100081E00895FBCF089581E0089581E008957A
:10052000FDCF089508950895FDCF08950895089585
:10053000A6E0B0E0EEE9F2E00C942B2349835A8365
:100540009E833091C10189819A81311117C03E810A
:10055000311589F0211579F000D5182F682F898180
:100560009A81DBD469817A81812F0E94AB0D269616
:10057000E3E00C944723E1D4182FF4CFEED4698143
:100580007A81F3CFFC01262F4081518162817381F2
:1005900084819581CDCFCF93DF93D82FC92F61E090
:1005A000F1DF6D2F7C2FB4DF811539F061E08D2FE5
:1005B0009C2FE8DF6D2F7C2FADDFDF91CF91089569
:1005C0000F931F93CF93DF93D82FC92F60E0DADF0B
:1005D0008C016D2F7C2FA7DF6D2F7C2FC801A4DF2E
:1005E000DF91CF911F910F9108950F931F93CF9398
:1005F000DF93EC0161E0C6DF8C018D8181110E94E7
:100600008E16BE01C80188DF811106C080E0DF912F
:10061000CF911F910F910895BE01C80181DF81150F
:10062000A9F3BE01C8010E947118811579F3BE01BA
:10063000C8010E943817811549F3BE01C8010E9404
:100640000F17811519F3BE01C8010E94E11381152E
:10065000E9F2BE01C8010E94ED0E8115B9F2BE019A
:10066000C8010E94FF0E811589F2BE01C8010E94D7
:10067000190FCDCF21E030E0A90102C0440F551F72
:100680008A95E2F7CA0182C3CF93C82F81E090E038
:100690000C2E02C0880F991F0A94E2F70E94AC0B3F
:1006A0008C2FE8DFCF91089581E0089581E00895CF
:1006B000FBCF0895CF93C82F18D38C2FF7DF8C2F43
:1006C000F7DFCF91089581E0F5DF0C94F51A80E013
:1006D000F1DF0C94061B2ADF0E94EC1917C018D01A
:1006E00026DF0C94F01981E008950895CF93DF93ED
:1006F000D82FF9DFC82F811511F08D2FF6DF8C2F41
:10070000DF91CF9108950895F1CF089580E0FCCF57
:100710000E94B818F9CFCF930E94B818C82F8091C3
:10072000BC018C1771F0C093BC010E94C51A609384
:10073000BD017093BE018093BF019093C0018C2FC7
:10074000E3DFCF910895ADE0B0E0E9EAF3E00C9487
:100750002C23488759876A877B878C879D879111CF
:100760000FD71F8286E0FE013896DE0111960190B8
:100770000D928A95E1F78D8181110CC029813A8112
:100780004B815C816D817E818F814AD62D96E2E01E
:100790000C944823CE010196FEDE8111EFCFF6CFF7
:1007A000FC018481813019F48081918107C408950E
:1007B000CF93C82F811589F08CEF8C0F813A78F494
:1007C0008C2F0E943E19811521F08C2F0E948019D8
:1007D00041D78C2F0E947A193DD7CF91089580E29E
:1007E0008C0F883040F4C77081E001C0880FCA9533
:1007F000EAF7A7D6F1CF8BE58C0F833038F42C2F96
:100800002452330BC9010E94DA18E7CFC85ACB3102
:1008100020F7EC2FF0E0EE0FFF1FEB5CFE4F808126
:1008200091810E940219D9CF811519F19CEF980F7F
:10083000913A18F40E9480190DC790E2980F9830F1
:1008400048F4877091E001C0990F8A95EAF7892FE3
:100850007ED6F2CF9BE5980F933020F480E090E0B5
:100860000C94DA18885A8B3120F480E090E00C94D4
:10087000021908951F93CF93DF93182FEB0198DF90
:10088000209731F4812FD0DFDF91CF911F91089510
:100890008FE99FE00197F1F700C000002197F0CFAA
:1008A00060E570E0893311F060E070E0E3CF81151E
:1008B00011F047D6CFC60895811511F048D6CAC6A3
:1008C0000895A0E0B0E0E7E6F4E00C9426236C0184
:1008D000D62FC72FFC010581F680F2948FE0F82215
:1008E00025D6E82E8115E9F0E02E0115D1F08C2FE8
:1008F000807F803461F080E28D0F883088F18C2F0A
:10090000807E803221F4D23058F1F11449F1809187
:10091000AF0282FF25C082E0BAD608D691E0E82E69
:10092000E9268C2F82958F70883009F4CAC060F553
:100930008430C0F41C2F1F708230B0F1C07FC032F1
:1009400011F01295107FD11509F456C0D13009F479
:100950007DC0011509F488C0F11409F465C035C0E3
:10096000E12CDFCF843009F48FC0E11409F4DAC040
:10097000D9D580FDD7C0F6011582CED538D2C601B3
:1009800089D1CAD542D2CEC0893009F40DC18A5F5F
:100990008F70823050F7D23F09F013C18C2F8F71C6
:1009A00001110DC124D2BBC0C03110F01295107FCF
:1009B000011581F0111549F080E28D0F883010F09B
:1009C000D11105C0812FBDD545D68D2F21C0812FD6
:1009D000C9D5FACF8D2F28DF111509F4C6CF80E2D3
:1009E0008D0F883010F0D11103C0812FB0D502C017
:1009F000812FBED52FD6B9CF8091AF0282FD10C016
:100A0000011541F0111519F0812F9BD523D680E0F7
:100A1000CFDEABCF80E008DF111509F4A6CFE5CF1C
:100A2000011559F0F11003C0812F41DF9ECFF1E095
:100A3000FF129BCF812FB9D598CFF11096CF812F80
:100A40003BDF812FBDD5812FA1D58FCF011529F097
:100A500026E0F21608F089CFE7CF85E0F81608F017
:100A600084CF812F29DF81CFF114D9F3D93349F411
:100A70009FEFE7EEF3E09150E040F040E1F700C077
:100A800000008D2FD1DE71CF8C2F869586958370D7
:100A9000811569F0813009F068CF8D2F9C2F9370FC
:100AA000011102C080E090E00E9402195ECF8D2FFC
:100AB0009C2F9370011102C080E090E00E94DA1830
:100AC00054CF8C2F8370811138C0011128C04D2F55
:100AD000429546954770440F440F2D2F2F7030E0FC
:100AE000042E02C0220F331F0A94E2F780E090E048
:100AF000D4FF09C08FE090E002C0880F991F4A958B
:100B0000E2F780959095C695C695C370822B932B7E
:100B1000C23079F0C33079F0C13049F040D10E9441
:100B2000B818F2DDCDB7DEB7E8E00C94422330D13F
:100B3000F6CF3CD1F4CF2AD1F2CF011559F1C0FF45
:100B4000EECF4D2F429546954770440F440F2D2F01
:100B50002F7030E0042E02C0220F331F0A94E2F7F8
:100B600080E090E0D4FF09C08FE090E002C0880FE1
:100B7000991F4A95E2F780959095C695C695C370E2
:100B8000822B932BC23061F0C33061F0C13031F061
:100B900061D1C5CF823008F4C2CFD3CF54D1BFCFFB
:100BA00060D1BDCF10D1BBCFCF70011529F08C2FF4
:100BB0001ED18D2F7CDEB3CF8D2F7EDE8C2F25D1E5
:100BC000AECF60F4D03FB9F0D13F81F0011509F408
:100BD0003AC0F114A9F18D2FEBDDA1CFD33FC1F0C5
:100BE000D43FA1F78091AF0282FD1AC08C2F8F7184
:100BF000011529F3D7CE011541F025E0F21608F0D2
:100C00008ECF8C2F8F7111D18ACF86E0F816F7CF57
:100C1000011521F08C2F8F71E0D081CFDBD07FCFF9
:100C2000011529F063E08C2F8F7119D578CF81E001
:100C30002ED592E0F91608F472CF82E028D56FCF56
:100C40008C2F8F71AFCEF11471F0D93349F4EFEFDF
:100C5000F7EE23E0E150F0402040E1F700C0000053
:100C60008D2FE2DD5CCF8C2F8F71A9CF0F931F9357
:100C7000CF93DF93EC01688179818D81AAD18C01BA
:100C8000F7D083D0B801CE011CDEDF91CF911F9148
:100C90000F910895CF93DF93EC018C81811581F042
:100CA000CE01A3DC81110FC041D4811549F08D81A3
:100CB000811531F08091AF0282FF02C082E0E7D45B
:100CC000DF91CF910895CE01D1DFCE0179DCF8CF4D
:100CD00080E090E00E94DA1880E090E00E94021923
:100CE0004FD4B8C40E948619F3CF39D4FBCF282F34
:100CF00092959F70963099F060F4925F9F70923059
:100D000030F4203FB1F038F481E0283E38F080E044
:100D100008959A5FF3CF81E0243FC9F7089591E0E9
:100D2000813F09F090E081E0283E08F080E0892BC7
:100D3000089581E00895FC018481811521F080816E
:100D400091813CD1D4CF80E00895A6E0B0E0EBEAF9
:100D5000F6E00C942C232696E2E00C944823A7E0BE
:100D6000B0E0E5EBF6E00C942C232796E2E00C943F
:100D700048230895FECF0895FDCF0895FADFFCDFE4
:100D80009093ED018093EC0108950895F7CF0895B5
:100D90002091EC013091ED01822B932BEFCF20912C
:100DA000EC013091ED0182239323E8CF2091EC01F7
:100DB0003091ED0182279327E1CFDBCF0895FDCF5E
:100DC0000895D7CF0895FDDFFADF9093EB0180936C
:100DD000EA01089580E090E0F6CF21E030E0A9013B
:100DE00002C0440F551F8A95E2F7CA01ECCF21E0FB
:100DF00030E002C0220F331F8A95E2F78091EA01AA
:100E00009091EB01822B932BDECF21E030E002C0EA
:100E1000220F331F8A95E2F7209530958091EA01E1
:100E20009091EB0182239323CECF21E030E002C0EA
:100E3000220F331F8A95E2F78091EA019091EB012E
:100E400082279327C0CF2091EA013091EB01822BBA
:100E5000932BB9CF2091EA013091EB0182239323A8
:100E6000B2CF2091EA013091EB0182279327ABCFDB
:100E700008959B01677091E001C0990F6A95EAF7A8
:100E800063E0369527956A95E1F7220F331F220F0D
:100E9000331FFA01E20FF31F40E050E0682F70E0CB
:100EA0008191DF019B01042E02C0369527950A949B
:100EB000E2F7217021952827292328272E934F5FB9
:100EC0005F4F4430510561F708959C01982F97704A
:100ED00083E0369527958A95E1F7220F331F220F7D
:100EE000331FFB01E20FF31F40E050E080E021914F
:100EF00030E0092E02C0369527950A94E2F721705A
:100F00003327042E01C0220F0A94EAF7822B4F5F89
:100F10005F4F4430510559F70895282F862F9A3096
:100F200058F4283048F438E0939FB0011124620F40
:100F3000711D42EC51E09DCF0895282F9A3058F44E
:100F4000883048F438E0939FC001112462EC71E0CE
:100F5000820F911DBACF80E00895A0E0B0E0E3EBEE
:100F6000F7E00C9425238C01E090EA01F090EB016E
:100F70008091EC019091ED01E82AF92ACFE0D0E0D0
:100F8000CC24C394D12CC6010C2E02C0880F991F0B
:100F90000A94E2F78E219F21892B49F4219798F733
:100FA000B12C8B2DCDB7DEB7E9E00C944123BC2EDC
:100FB000B8018C2FDBD5019789F3F3CFCF93DF9363
:100FC000D82FC92FCADF6D2F7C2FD0D5DF91CF91BD
:100FD00008951F93CF93DF93162FD72F9091C101C0
:100FE000911539F0862F972FE9DFDF91CF911F916F
:100FF0000895811569F0862F972FAFDFC82F682FCE
:10100000812F9D2F8ADF612F7D2F8C2FAFD5EDCFC4
:10101000862F972F92DFC82FF6CF0F931F93CF9372
:10102000E091EE01C7E08091EF018E1304C0CF91F3
:101030001F910F9108950E2F10E0CE9FF001112403
:10104000E051FE4F2081318142815381648175815D
:10105000868185DEF8013196E770E5CF2091280280
:101060003091290240912A0250912B0260912C026A
:1010700070912D0280912E0272CE80912E028031CD
:1010800078F480912D02811559F0E091EE012091C4
:10109000EF01309129024091280257E02E1301C040
:1010A00008956E2F70E05E9FF0011124DF01A051C2
:1010B000BE4F14968C911497811549F111968C911D
:1010C0001197831324C08C91841321C015968C91A1
:1010D000159781111CC012968D919C91A0912A02A6
:1010E000B0912B028A1B9B0B883C910580F4809168
:1010F0002E028F70806180932E02EA50FE4F808115
:101100008F708061808388E292E0C4DD86CFFB012E
:101110003196E770C3CFE091EE019091EF0127E0A7
:10112000E91302C080E00895AE2FB0E02E9FF001D9
:101130001124E051FE4F3181361306C0308138133F
:1011400003C03581341304C0FD013196E770E8CF48
:1011500081E008958F929F92AF92BF92DF92EF92BB
:10116000FF920F931F93CF93DF93CDB7DEB72D97E9
:101170000FB6F894DEBF0FBECDBF8C0186E0F8013C
:10118000DE01189601900D928A95E1F7F801F5803D
:10119000848198E2892E92E0992E90912C029111EF
:1011A00017C0811509F4EFC0F11409F42EC1C8016C
:1011B000C2DD811509F429C187E0F801D40101904D
:1011C0000D928A95E1F7C401EBDA57DF47DFDBC008
:1011D000E080A280B380D0902D0220912A0230912D
:1011E0002B02A501421B530BD11409F4CFC0483C7C
:1011F000510508F09EC0811509F4C5C090912902DF
:10120000918080912E02803108F065C0991226C02D
:10121000909128029E1122C0F11057C08F708061FA
:1012200080932E021BDF88E292E034DD80912E0253
:10123000F8018683F12C8F2D2D960FB6F894DEBF22
:101240000FBECDBFDF91CF911F910F91FF90EF9017
:10125000DF90BF90AF909F908F900895F11035C0B0
:1012600040E0692D8E2D57DF40E0692D8E2D53DF34
:10127000F82E8111DFCF88859985A0DE292F229550
:101280002F70903450F49F70223078F0911591F0C7
:10129000F8019681903170F4CECF2A5F2F70223002
:1012A00070F0C801F7DCFD2CC6CF911519F081153F
:1012B00009F4C1CF805E883008F4BDCFF2CF803F03
:1012C00008F4B9CF815F8330F7CF80912E0281601F
:1012D00080932E02AFCF991207C0909128029E11E1
:1012E00003C0F11409F473C0C80125DD811509F4A8
:1012F0008CC0F11409F489C080912E02803280F0F4
:1013000020912802309129023A832983BC82AB8242
:1013100090912C029D831E828F83CE010196BADCB0
:1013200087E0F801A8E2B2E001900D928A95E1F71A
:101330004CCF90912E02903188F4488559856A856A
:101340007B858C859D8501DD88E292E0A3DC87E0CA
:10135000F40111928A95E9F781DE6CCF811599F03D
:101360002091290281812813BFCF809128028E11FC
:10137000BBCFF110B9CF9683C8018CDC87E0F401B4
:1013800011928A95E9F7FF24F39455CF483C510513
:1013900008F03EC08115B9F3F114B9F1909129021A
:1013A0008181981329C0809128028E1125C08091D7
:1013B0002E0280FD18C08031B0F08683807F803F90
:1013C00039F08681982F907F905F8F70892B86836C
:1013D000C80160DC87E0F801A8E2B2E001900D925C
:1013E0008A95E1F7F3CE87E0F801A8E2B2E0019038
:1013F0000D928A95E1F7C7CFC8019DDC811190CF8E
:1014000080912E02816080932E02C80143DCBBCF05
:10141000488559856A857B858C859D8596DC97CF27
:10142000AEE0B0E0E6E1FAE00C942B2328873987A0
:101430004A875B876C877D878E87CE0108968ADE18
:101440006C858115A1F0611539F0288539854A85AB
:101450005B857D858E8583DC17E08091EE01909120
:10146000EF01891338C02E96E3E00C94472387E000
:10147000FE013896DE01119601900D928A95E1F7F2
:10148000611551F3A091EF018A2F90E001968770CA
:1014900099272091EE012817190681F097E09A9F6D
:1014A000D0011124A051BE4FFE01319601900D9242
:1014B0009A95E1F78093EF01B0DDCECF16DC109264
:1014C000EF011092EE0187E0E8E2F2E0DF011D9209
:1014D0008A95E9F7C1CF189FC001112480519E4F12
:1014E00039DE811509F4BFCFE091EE011E9FF001B6
:1014F0001124E051FE4F208131814281538164816A
:10150000758186812CDC8091EE0190E001968770D8
:1015100099278093EE01A1CF809137028695869519
:1015200086950895809137028770089590913702CB
:10153000977081E0911101C080E00895809143028D
:10154000089590914302982B909343020895982F09
:1015500090958091430289238093430208951092CD
:101560004302089590914202982B9093420208956D
:10157000982F90958091420289238093420208958A
:101580001092420208950895FECF08959091380276
:10159000292F2823211529F080958923809338024B
:1015A000F3CF08950895FECF089590913902292F21
:1015B0002823281721F0982B90933902F4CF08950F
:1015C00090913902292F2823211529F0809589230C
:1015D00080933902E8CF089580913902811521F076
:1015E0001092390280E0DFCF08950F931F93CF93BD
:1015F000DF930091000110910101C091430280919D
:101600004202C82B80913902811529F0C82B0E9413
:101610002A198111E1DFF801C083C0910001D09146
:10162000010148E050E06FE272E0CE010E948923A0
:10163000892B59F088E0FE01AFE2B2E001900D92F3
:101640008A95E1F7CE010E94CD18DF91CF911F91CD
:101650000F910895CACF08950895FECF0895962F4B
:101660002091AF0222FF0EC0682F660F660F660F33
:10167000692B60933702BBDB809137028695869594
:101680008695EBCFB4CB1092370280E0E6CF9091F5
:1016900037028095892380933702282F27702111E4
:1016A0000BC0891749F09091AF0292FF05C0869553
:1016B00086958695AADBE7CF08959091AF0292FBBD
:1016C000222720F9281749F080FB92F99093AF0266
:1016D0008EEA92E045D082E0DACF08958091AF02A1
:1016E000002482FF0394802DE8CF81E0E6CF80E0E4
:1016F000E4CF60E070E0CB0164C460E070E0CB0157
:101700005AD4F7CFA3E0B0E0E8E8FBE00C942C2338
:10171000AAD3B5D31B82CE010396C8D381E090E053
:101720009093ED018093EC01CDD3198284E18A83FB
:10173000CE010196D8D30E94C514DFDF2396E2E0E4
:101740000C944823DFCF0895A0C308958DC3089556
:10175000A2C30895B1C30895B5C30895B8C3089549
:10176000C2C30895C7C3089506C4089530C4089538
:1017700038C40895A6E0B0E0E0ECFBE00C942A2326
:101780000E94B91A8C018091440290914502801701
:10179000910779F019821A820E94B91ABC01498115
:1017A0005A8180E090E00E94A303109345020093C9
:1017B00044022696E4E00C944623F4D260934A0255
:1017C00070934B0280934C0290934D0260934602BB
:1017D00070934702809348029093490208950895B8
:1017E0000895FDCF08950895FEDFFBCF0895FECF45
:1017F00008950895FEDFFBCF81E008958BEE9EE013
:10180000DBD7EEDFF1CF96C50895089508950895CA
:10181000FCDFFCDFFCCF9ADF811101C093DF8EE497
:1018200092E096DF8EEA92E099DF0E94F31692DF53
:10183000ADDA8091EA019091EB01C1CA0E94B01A21
:101840008CD27BD5CAD4E7DF0E94B6180E948303EE
:101850000E94F5160E942B167AD5CCCF6BD581113C
:101860000C94B7180895A6E0B0E0E9E3FCE00C940E
:101870002323C2DF81110AC07DDFF0DF0E948F16B3
:101880000E948B032696EBE00C943F23C3D484EA9A
:10189000C82E82E0D82E760110E0F70101917F0179
:1018A000812FAAD31F5F1A3009F445C00817A9F386
:1018B00080914E0281FDA6D3A6DFA82E10E0812FD5
:1018C0009BD3082FF60191916F01891779F1B82EFA
:1018D000B926F12CEE24E3948B2D8E218115F9F09D
:1018E00099249394902F9E21911101C0912CA114C1
:1018F00089F06F2D812F0E94121A81110BC0F9827D
:101900001A830E94B91ABC0149815A8181E0992D3C
:101910000E94A303492D6F2D812F0E94261AF39454
:10192000EE0CF8E0FF12D8CFF60102931F5F1A30D9
:1019300031F643DFA2CF0813BBCF9ECF1F93CF93C7
:10194000DF9316D1EC01811522E5920708F05AC009
:10195000811540E5940708F0D7C0803E910528F531
:101960008D3C910508F0A9C0883A910578F4853A34
:10197000910508F09FC08130910509F43EC004979D
:10198000813A9105D0F1C0E0D0E037C0885A910982
:101990004B97C8F7C85AD0E0CC0FDD1FC559DE4FB2
:1019A0000990D881C02DD46428C0811550E49507D2
:1019B000E8F4C11580E2D80708F0BCC0C83ED105E4
:1019C000E0F0CE019A9581159F41E8F68D2F74D1F4
:1019D000182FCE019927CCD0212F30E0322F22278B
:1019E000E901CC27DF71C82BD92B07C09927C0D0BC
:1019F000CC27DF70C82BD92BD06ACE01DF91CF91D5
:101A00001F910895803842E59407C8F5803652E565
:101A1000950708F05BC0C03482E5D807D0F4C03227
:101A200092E5D90708F04BC08C2F8695869520E269
:101A3000829FC0011124C37021E030E0A90102C0DF
:101A4000440F551FCA95E2F7EA01C82BD92BDD6870
:101A5000D4CF8C2F86958695877050E2859FC001E4
:101A60001124C37021E030E0A90102C0440F551FCA
:101A7000CA95E2F7EA01C82BD92BDC68BECF803CBF
:101A800052E5950758F48F71C03AD245A0F590E021
:101A9000982F8827EC01C46FD06AAFCF805C924545
:101AA000809708F070CFDC2FCC27CC27DF71C06F78
:101AB000D06AA3CFA497D064A0CFD0659ECFCF71BA
:101AC000D0E0DC2FCC27C16FD06A97CF8695869562
:101AD000877020E2829FC0011124C37021E030E0B2
:101AE000A90102C0440F551FCA95E2F7EA01C82BAD
:101AF000D92BDA6882CFE0D0C82FD0E0DC2FCC27FA
:101B0000CC27DF71D06279CF8F71D6D053E0CC0F64
:101B1000DD1F5A95E1F7CC27DF70282F30E084FFD6
:101B200005C050E1859F900111243327C22BD32B90
:101B3000D06963CF8D2F8F71BFD0182FCE01992719
:101B400017D0212F30E0322F222722273F71282B58
:101B5000392BE901D7CF462F672F7A3020F4483050
:101B600010F40C94840280E090E00895F4DFE6CE57
:101B7000803E9105D9F1C8F48133910509F482C002
:101B800048F48932910509F472C08A32910509F44A
:101B900080C0089589339105E9F082389105D1F02C
:101BA0008533910509F45EC00895843E9105D9F10D
:101BB00048F4823E910539F1833E910549F181EE69
:101BC00090E00895863E9105C9F1873E910509F49C
:101BD0003EC008952091AE022370211164C020916F
:101BE000AF0223FF14C089E290E008952091AE0275
:101BF00020FD45C03091AF0230FF09C024FD24C054
:101C000083EE90E008952091AE0222FDF7CF089573
:101C10002091AE0222FD44C03091AF0230FD43C09E
:101C200024FFF5CF11C02091AF0221FFF0CF8091AA
:101C3000AE0284FD09C087EE90E008952091AE02C7
:101C400023FFE5CF24FFF7CF80E090E008952091B7
:101C5000AE0223FD2BC03091AF0231FFE1CF84EE05
:101C600090E008952091AE0225FFD1CFBCCF209106
:101C7000AE0225FD1EC02091AF0223FFC8CF89E32D
:101C800090E008952091AE0226FFC1CF8AE290E055
:101C900008952091AE0226FFBACF81E390E0089527
:101CA00082EE90E0089580EE90E0089586EE90E058
:101CB000089585E390E008959091AE0292FF10C0E0
:101CC00041E0282F2471243009F040E031E0282F32
:101CD0002871283009F030E0431711F02CE08227FA
:101CE00093FF10C041E0282F2471243109F040E017
:101CF00031E0282F2871283109F030E0431711F026
:101D00002CE082273091AF0230FF10C051E0282F25
:101D10002171213009F050E041E0282F287128304E
:101D200009F040E0541711F029E0822731FF10C07C
:101D300041E0282F2171213109F040E031E0282FC6
:101D40002871283109F030E0431711F029E082278B
:101D500094FF02C083FD877E08951092B002109216
:101D6000B1021092B2021092B3020895CF92DF92A4
:101D7000EF92FF926B017C01DDD281110EC00E94B7
:101D8000C51AC61AD70AE80AF90AC092B002D09258
:101D9000B102E092B202F092B302FF90EF90DF90B6
:101DA000CF9008950F931F93C5D2811529F00E94FB
:101DB000C51A1F910F9108950E94C51A0091B00293
:101DC0001091B1022091B2023091B302600F711FE5
:101DD000821F931FEECF80E00895CF939C01FB01FB
:101DE000805E9245C1E0809738F4C581C11104C07E
:101DF000822F8F710E9444038C2FCF9108959C01F4
:101E0000FB018581811599F02B35FCE73F0769F0CF
:101E10002C359CE7390721F02A353C4721F00895FD
:101E20005DDC80E0089561DCFCCF61DCFACF81E00D
:101E300008959C01FB018581811599F02130FCE713
:101E40003F0761F023309CE7390739F021153C4703
:101E500049F40E94630380E0089576DC0E946703E2
:101E6000FACF81E00895089580E090E00E94AC23CD
:101E70009C0181E0233E3E4F09F080E0089563EE2F
:101E80007EEF80E090E00C94CB236FEF7FEF80E05B
:101E900090E00C94CB23CF93DF93EC0182E090E0B1
:101EA0000E949F238883DF91CF910895FC01608178
:101EB00082E090E00C94B12383E090E00E949F23A5
:101EC00090E00895682F83E090E00C94B123CF93C5
:101ED000DF93EC0184E090E00E94AC239983888337
:101EE000DF91CF910895FC016081718184E090E0E1
:101EF0000C94CB238F929F92AF92BF92CF92DF929E
:101F0000EF92FF920F93CF93DF93EC0188E090E084
:101F10000E94A7234B015C0168839982AA82BB823D
:101F20001C821D821E821F8283E290E00E949F23FA
:101F3000282F30E040E050E060E070E080E090E08A
:101F400000E20E945323282939294A295B29288342
:101F500039834A835B836C837D838E839F83DF9188
:101F6000CF910F91FF90EF90DF90CF90BF90AF9007
:101F70009F908F9008950F93CF93DF93EC0148814A
:101F800059816A817B8188E090E00E94C323288187
:101F900039814A815B816C817D818E819F8100E2E4
:101FA0000E946E23622F83E290E00E94B123DF91B2
:101FB000CF910F910895AB01BC018FE090E00C949C
:101FC000C323AB01BC0183E190E00C94C3238EE0FA
:101FD00090E00E949F23982F81E0911101C080E042
:101FE0000895682F8EE090E00C94B1230895FECF01
:101FF00008950895FECF0895E82FF0E0E154FD4FD5
:1020000080810895089580EA8A95F1F7089500C0C7
:102010000895F9CF08950895FECF0895A5E0B0E0A2
:10202000E4E1F0E10C94262385D1F82E8091C902D9
:1020300090E081549D4FF114D9F125E0E22E8E01FC
:102040000F5F1F4FF8012E2D11922A95E9F7B80165
:102050008AD168018115B1F08091B40290E045E029
:1020600050E0B80181549D4F0E94892321E02093C4
:102070004F02892B89F4F12CBDDF8F2D2596E8E0E6
:102080000C94422380914F028115A9F3F80111921B
:10209000EA94E9F710924F02A091B402B0E0A15483
:1020A000BD4F85E0F60101900D928A95E1F7E4CFEE
:1020B0002091B40230E0BC01C90181549D4FDCD1B4
:1020C000ABDFDBCFF894E82FE295EF70F0E041A1B1
:1020D0008F7021E030E0B90102C0660F771F8A954A
:1020E000E2F7CB01962F9095942391A392A1892B8F
:1020F00082A378940895CF93DF93C9EAD1E08991C0
:102100008F3F09F0DFDF81E0CE3AD807C1F7C1EA9F
:10211000D1E089918F3F09F0D5DF81E0C93AD80736
:10212000C1F7DF91CF910895A0E0B0E0EAE9F0E1D6
:102130000C942623EC01D62E062F10E0C8018755FB
:102140009E4F7C01FC0180818F3F09F441C0F894CF
:10215000E82FE295EF70F0E091A18F7021E030E080
:1021600001C0220F8A95EAF7892F822B81A382A1D1
:102170002095282322A378944ADFA1EAB1E091E0D8
:10218000C12C8D918F3F79F0E82FE295EF70E05EE2
:10219000F0E0208130E08F7002C0359527958A9558
:1021A000E2F7892F20FD80E0C82A990FF1E0A93AD3
:1021B000BF0739F7F70180818F3F09F083DF61E0C6
:1021C000C11001C060E08D2D24DFC00FD11FC88277
:1021D000CDB7DEB7E8E00C944223A9D0A8D090E0B8
:1021E000811101C095E09093C90285E0891B80931D
:1021F000B40281DF8AE0EFEBF2E0DF01982F1D925D
:102200009A95E9F7E5EBF2E0DF011D928A95E9F78F
:102210003DD0EDCEAAE0B0E0E0E1F1E10C9429235D
:10222000FE0131968AE0DF011D928A95E9F710E000
:10223000FE2E0F2F612F8F2D902F76DF1F5F153011
:10224000C9F74AE050E06F2D702F85EB92E00E94B5
:10225000892341E0892B81F440E06091C90270E05C
:1022600061547D4F85EB92E012D0182FD7DE812B81
:102270002A96E5E00C9445238AE0EF2DF02FA5EB9C
:10228000B2E001900D928A95E1F7E7CF0895EF92C1
:10229000FF920F931F93CF93DF93F82E092F162FE2
:1022A000D72FC42F411579F081E0809352020E940C
:1022B000B91A909351028093500280E0CDB7DEB7F7
:1022C000E6E00C944423E0905202E114B1F38091D3
:1022D0005002909151020E943A1A059770F345E01E
:1022E00050E06F2D702F812F9D2F0E948923892B05
:1022F00051F085E0EF2DF02FA12FBD2F01900D9211
:102300008A95E1F7CE2D109252028C2FD7CF1EDA8C
:10231000811101C017DA2ACACF930E94F522C82F73
:10232000811102C00E94F1228C2FCF9108958091DB
:1023300056020895809155020895EEDF809355026C
:10234000E6DF80935602F6DF811142C00895F2DF86
:10235000811101C040C0089581E0909157029A30E8
:1023600008F080E008950F931F93CF93DF93EC0163
:10237000162F072F809157028A3088F4612F702F13
:10238000CE0178D0811121C0809157028F3FB1F4E6
:102390000E94B91A909354028093530209C080910D
:1023A0005302909154020E943A1A843F914030F7B0
:1023B00080E0DF91CF911F910F9108958F5F8093FF
:1023C00057028A3028F781E0F4CF10925702FBCFF2
:1023D0000C94661B08950C94691B0895A0E0B0E06E
:1023E000E4EFF1E10C942623FA0169017801C82F8A
:1023F000880FDD0B3097B9F0DE0193E0AA0FBB1F09
:102400009A95E1F7AE5FBE4F11968D919C91129710
:10241000885A9D4F2C91422F50E0E217F10508F4A5
:10242000AF010E949623CE010E944B1C182F8115EC
:10243000D9F0E114F104C1F083E0CC0FDD1F8A95DF
:10244000E1F7FE01EE5FFE4F8381482F50E0E81672
:10245000F10408F4A701CE5FDE4F6C817D81685ADC
:102460007D4FC6010E949623812FCDB7DEB7E8E0ED
:102470000C94422326C1089545C10895A4E0B0E01C
:10248000E4E4F2E10C942A2360917A0270917B02D9
:1024900080917C0290917D02F6D711E0643671053F
:1024A0008105910510F17EDCDC01CB010296A11DB6
:1024B000B11D89839A83AB83BC8300E010E020E0E8
:1024C00030E044E050E0BE016F5F7F4F82E086DF86
:1024D000182F811551F00E94C51A60937A027093EB
:1024E0007B0280937C0290937D02812F2496E4E00E
:1024F0000C944623ABE0B0E0E0E8F2E10C94292331
:102500008E010F5F1F4FC801D0D3FB8460917E0204
:1025100070917F028091800290918102B4D7F02F58
:10252000E12F643671058105910510F4F114B1F0C5
:1025300000E010E020E030E04BE050E06F2F7E2F15
:1025400083E04CDF811561F00E94C51A60937E0222
:1025500070937F028093800290938102A3D381E0E5
:102560002B96E5E00C944523A6E0B0E0EAEBF2E11F
:102570000C9424237B01A090AE01B090AF0101E048
:1025800010E09E012A5F3F4F40E050E060E070E0C5
:1025900080E024DF182F811509F442C065018FEF18
:1025A000C81AD80A609176027091770280917802F9
:1025B0009091790268D7643671058105910548F1DB
:1025C00005E010E09E012F5F3F4F40E050E060E0EB
:1025D00070E081E003DF182F65E070E0C60106D4EB
:1025E0009E81981328C0111531F1CFD760937602E0
:1025F00070937702809378029093790285E0FE01D0
:102600003196A1E7B2E001900D928A95E1F781E061
:1026100013C065E070E0C601E9D39E818913D0CF75
:1026200085E0F5013196DE01119601900D928A95B3
:10263000E1F71111E3CF80E095E0E1E7F2E0D701A7
:1026400001900D929A95E1F72696EAE00C944023CA
:10265000A0E0B0E0EEE2F3E10C942423F82EE92EA2
:10266000B62EA72E8A0178DE9AE0C92ED12C8111D0
:1026700003C0CC24C394D12CC1E0D0E06B2D7A2DC3
:102680008F2D9E2DF8010995811116C02196CC162B
:10269000DD0694F0CC9FC001CD9F900D900D1124CC
:1026A00020E030E045E34A95F1F700002F5F3F4F0F
:1026B00028173907B9F7E2CFCDB7DEB7EAE00C94B7
:1026C00040230F931F93CF93DF93D82FC92F8B01F4
:1026D00044EB52E1BDDF811106C080E0DF91CF9174
:1026E0001F910F9108954EE352E1B8018D2F9C2F59
:1026F000AFDF811591F34AE752E1B8018D2F9C2F8E
:10270000A7DFECCFABE0B0E0E8E8F3E10C942623E0
:10271000FB010091AE011091AF01C801019625E0C7
:10272000DC0101900D922A95E1F765E070E05ED33F
:10273000F80180836681778180859185C0906D02E4
:10274000D0906E02E0906F02F09070026C157D05E3
:102750008E059F0549F060936D0270936E02809321
:102760006F029093700202DB8BE0F8013A96DE0173
:10277000119601900D928A95E1F7F801148A8B85E4
:10278000811521F060E0CE010196A6D22B96E8E0FB
:102790000C94422368C8089586D60E94D91D2ED86D
:1027A0000E94F11D4BD80E94FA1D0E94FD1DF2DF10
:1027B0000E94131E2DD8F9CF9093BB018093BA01CC
:1027C0000895CF93DF93EC01FB018581811104C053
:1027D00081E0DF91CF9108950E949E0A8272FE01EE
:1027E000E052F847EB30F10598F7EF51FC4D0C94AF
:1027F000162329D280E0EDCF811521F018D2FACF2F
:102800008115E1F309D2F6CF811521F0AFD1F2CFD6
:102810008115E1F3A1D1EECF811521F0C1D1EACF2D
:102820008115E1F3B0D1E6CF811521F0D3D1E2CF0C
:102830008115E1F3C2D1DECF811521F0D6D0DACFF8
:102840008115E1F3C2D0D6CFCF92DF92EF92FF9203
:102850001F93CF93DF93172FE82F711111C04115EC
:1028600021F0F0E0E457FD4FE4916E2F7E2F8E2F84
:10287000DF91CF911F91FF90EF90DF90CF9008955F
:10288000C62ED12CE72EF12C411521F0F0E0E457B3
:10289000FD4FE49186E0689F90011124CFEFD0E0D6
:1028A000C901BE010E940223AB01C601880F991F16
:1028B000F5E5F49FB001F59F700D1124861B970B71
:1028C000682F660F680F6E01CE18DF08EC9DD001EF
:1028D000ED9DB00D11249B2F169F60011124CD2C6E
:1028E000DD247E01EC18FD086701EC9D7001ED9D73
:1028F000F00C11246E01C61AD108B601169F6001B2
:10290000179FD00C1124CD2CDD24CC19DD09EC9FB0
:102910006001ED9FD00C11247D2D43305105C1F095
:102920002C3F334050F441305105B1F04230510555
:1029300061F47E2FEB2F9D2D08C04430510579F0B6
:102940004630510511F07B2F9F2D6E2FE92F8FCF31
:102950007F2D9E2FEB2FF9CF7E2FEF2DF6CF9E2FC1
:10296000ED2D7B2FF2CF41E06FCFFDCF0895809109
:10297000CA02843038F48091CA02837084608093E4
:10298000CA0208958830B8F70895EAECF2E085E0CD
:10299000808311828FEF828383831482E3E8F2E0E5
:1029A0008281836082838AEC92E00C94B40B9091D4
:1029B000CE02933018F49F5F9093CE02811521F0E0
:1029C0008AEC92E00C94B40B089581E0F0CF9091E2
:1029D000CE02911519F091509093CE02811521F0FD
:1029E0008AEC92E00C94B40B089581E0F0CF0F9341
:1029F0001F93CF938091CA0280FF09C0E091B80174
:102A0000F091B9010995CF911F910F910895C0914F
:102A100024010091B4011091B50180912501C817DE
:102A200068F7809122019C2F981B892F20E040E0BD
:102A300060E090E0F8010995CF5FEFCFEAECF2E0BB
:102A400080818E7F8083CF010E94B40BE3E8F2E0A7
:102A5000828181608283CBCFEAECF2E080818E7F3D
:102A60008083E3E8F2E0828181608283C0CFEF92CD
:102A7000FF920F931F93CF93DF93D82F162F042F1E
:102A80008091CA0280FF0BC0C0912401E090B40184
:102A9000F090B50180912501C81730F0A8DFCDB7BF
:102AA000DEB7E6E00C944423809122019C2F981B12
:102AB000892F202F412F6D2F90E0F7010995CF5FCF
:102AC000E9CF0F931F93CF93DF93182FD62FC42FE7
:102AD000022F8091CA0280FF32C09091CB029113E5
:102AE00008C09091CC02961304C09091CD02941727
:102AF00029F090918502926090938502E82FE695E7
:102B0000E695F0E0E055FE4F9081909383028C7F34
:102B1000843049F4612F7D2F8C2F27DF962F672F6C
:102B2000482F892FA4DF1093CB02D093CC02C093FF
:102B3000CD02011521F08AEC92E00E94B40BDF91E6
:102B4000CF911F910F910895282FEAECF2E0818137
:102B500043816281885FB5CF81E0F6CF282FEAEC10
:102B6000F2E08181438162818850ABCF81E0F6CF72
:102B7000282FEAECF2E0628131E1630F08F46FEF95
:102B8000438181819ECF81E0F3CF282FEAECF2E0F0
:102B9000628131E1631B08F460E04381818191CF60
:102BA00081E0F3CF282FEAECF2E0438131E1430FDB
:102BB00008F44FEF6281818184CF81E0F3CF282F29
:102BC000EAECF2E0438131E1431B08F440E062812A
:102BD000818177CF81E0F3CF20E073CF8091CA026B
:102BE00080FF16C0837084608093CA028091850242
:102BF000816080938502611521F08AEC92E00E9449
:102C0000B40B4091CD026091CC028091CB02E4CF15
:102C10000895682F81E0E2CF81E0FBCF682F80919B
:102C2000CA02869586958A9509F481E0D7CF81E01E
:102C3000F5CF61E0D3CFEAECF2E080818160808360
:102C400086958695F6CF8091CA0280FF01C0F6CEA8
:102C5000F2CF60E0C3CF80918202811122C08AEC62
:102C600092E00E94B20B809185028360809385027E
:102C70008091CA02843028F488DE8AEC92E00E94B7
:102C8000B20B75DEE091B201F091B301099580912C
:102C9000CA0280FF03C086958695DBDF81E08093C2
:102CA00082020895109285020895CF93DF93EC017C
:102CB00088E0EAECF2E0DE0101900D928A95E1F7FE
:102CC0008091830290918402A091850288879987E0
:102CD000AA87DF91CF9108951F93CF93DF93EC01E3
:102CE000162F8A8580FF0CC0888180FF15C08091D7
:102CF000CA0281608093CA028881869586956EDFBC
:102D00008A8581FF05C0212F4B816A818981D9DEA7
:102D1000DF91CF911F9108959FDEF2CF089508951E
:102D2000269A0895FC01EE0FFF1FE80FF91FEE52DF
:102D3000FD4F6183408322830895FF920F931F9379
:102D4000CF93DF93182F062FF42EC0E0D0E02F2D65
:102D5000402F612FCE01E6DF2196C532D105B9F7AC
:102D6000CDB7DEB7E5E00C94452335B13F7B25B107
:102D700020644FB7F89482ED92E0FC0101965081F7
:102D800068E025B9000000C057FF35B9550F0000B5
:102D900000C000C000C035B900C06A9591F753E08B
:102DA0008134950751F74FBF8FE594E00197F1F714
:102DB00000C0000008950C94A40B089580E01CD975
:102DC0008170089527DA2FEF86E791E02150804047
:102DD0009040E1F700C000001DDAF0DF811511F02E
:102DE000EADF03C40895EECF08950895FC01680F4B
:102DF000791F8FEF41E3E617F70709F408959191E2
:102E0000892728E030E0982F990F87FF06C0892F87
:102E1000842721503040B9F7EECF892FFACFCF93D6
:102E2000DF93EB0186319C4709F50E949E0A9D8144
:102E3000911599F08A7A91E0811101C090E0909308
:102E40008602811541F085E355D20E942A0B80E06D
:102E5000DF91CF91089589E2F7CF809186028115A5
:102E600019F085E34DD2F1CF89E2FCCF81E0F0CFBC
:102E7000CF93DF93EC01FB018581811509F4CBC071
:102E80009E0130572332310508F0ABC08EEA92E044
:102E90000E94AE0BFE01E150F047E232F10520F452
:102EA000E451FC4D0C9416238091AE028160809316
:102EB000AE0290C08091AF0288608093AF028AC05A
:102EC0008091AE028260F3CF8091AE028460EFCF3A
:102ED0008091AE028860EBCF8091AF028160EDCF30
:102EE0008091AF028260E9CF8091AE028061DFCF36
:102EF0008091AE028062DBCF8091AE028064D7CF3A
:102F00000E9475068091AE028068D1CF8091AE029A
:102F10008C60CDCF8091AF028360CFCF8091AE0225
:102F20008E7FC5CF8091AF02877FC7CF8091AE02E1
:102F30008D7FBDCF8091AE028B7FB9CF8091AE02E5
:102F4000877FB5CF8091AF028E7FB7CF8091AF02E0
:102F50008D7FB3CF8091AE028F7EA9CF8091AE02DC
:102F60008F7DA5CF8091AE028F7BA1CF0E94750689
:102F70008091AE028F779BCF8091AE02837F97CFF7
:102F80008091AF028C7F99CF8091AE02992782FF0A
:102F9000939590FB82F990FB83F989CF8091AF02E2
:102FA000982F909590FB80F990FB81F986CF9091B6
:102FB000AE02892F8F7B96FF806479CF0E947506C1
:102FC0009091AE02892F97FB87F9805870CF81E0EE
:102FD0000E94B80B8EEA92E00E94B00B0E94750628
:102FE00080E0DF91CF91089580E0F2CF9091AE0222
:102FF000892F8F7E94FF80615ACF9091AE02892FE6
:103000008E7F90FF816053CF9091AF02892F877F91
:1030100093FF886052CF81E0E4CF0F931F93CF934B
:10302000DF93C42FD22FFC0185818115C1F040931D
:1030300089029FD2909388028093870280E28C0F4E
:10304000883040F4C77081E001C0880FCA95EAF764
:103050000E945704DF91CF911F910F910895109115
:103060008902141332C0809187029091880202D2A3
:10307000883C910550F5C0E2CD0F1D17C1F080E2EC
:10308000810F883040F4177081E001C0880F1A95D5
:10309000EAF70E945C04C83050F491E08D2F8770ED
:1030A00001C0990F8A95EAF7892F0E945704802F53
:1030B0000E945004C83070F6D77081E001C0880FBC
:1030C000DA95EAF70E945C04C5CF80E28C0F883065
:1030D00008F0C0CFC77081E001C0880FCA95EAF739
:1030E000F1CF0F93FC01CB01E851FC47E730F1052C
:1030F00088F5E25FFB4D0C94162306E221EE41EECB
:103100006AE17CE78ADF80E00F91089507E225EE0F
:1031100045EE6BE17CE7F6CF06E221EE40EE68E19A
:103120007CE7F0CF07E225EE44EE69E17CE7EACFE9
:1031300006E221EE42EE6CE17CE7E4CF07E225EE09
:1031400046EE6DE17CE7DECF08E221E045EE6EE180
:103150007CE7D8CFFB01858181111092890281E043
:10316000D3CF9093900280938F020895089508958D
:10317000E1D8811103C080918A020895E0918F0205
:10318000F0919002309739F00190F081E02D309766
:1031900011F00995089580E00895E0918F02F09173
:1031A0009002309731F00280F381E02D309709F0E2
:1031B00009950895A3E0B0E0E0EEF8E10C942C232B
:1031C0009C0180918D0290918E0282179307B1F03D
:1031D00030938E0220938D02E0918F02F091900245
:1031E000309761F00084F185E02D309739F083E06D
:1031F00089833B832A83CE01019609952396E2E0D9
:103200000C944823A3E0B0E0E8E0F9E10C942C230F
:103210009C0180918B0290918C0282179307B1F0F0
:1032200030938C0220938B02E0918F02F0919002F8
:10323000309761F00084F185E02D309739F084E01B
:1032400089833B832A83CE01019609952396E2E088
:103250000C94482340910001509101019A012E5F86
:103260003F4F485F5F4F80E0F90190812F5F3F4FF4
:1032700091118F5F42175307B9F70895811571F0C7
:103280002091000130910101F9013296285F3F4FF2
:103290009191981729F0E217F307D1F780E008958C
:1032A00081E008959C01FC0132968FEF90E04191FE
:1032B000461751F08F3F19F4411101C0892F9F5FCC
:1032C0009630A9F78F3F09F40895280F311D87FD27
:1032D0003A95F901628308959C01FC013296285FBA
:1032E0003F4F8191861302C0DF011E92E217F30760
:1032F000C1F70895682F8091000190910101D2CF0C
:10330000682F8091000190910101E6CFE0910001CA
:10331000F0910101329686E0DF011D928A95E9F76E
:1033200008950895FECF08958F5F80932A016091DC
:103330002701709128018091290190912A01F2CFF3
:1033400083E080932A016091270170912801809188
:10335000290190912A01E6CFE7CF089581E080937B
:103360002A01609127017091280180912901909193
:103370002A01D8CFF3CF089591E0811101C090E0E8
:103380009093290160912701709128018091290172
:1033900090912A01C7CF8091290108958093280137
:1033A00060912701709128018091290190912A0153
:1033B000B9CF80912801089580932701609127015A
:1033C000709128018091290190912A01ABCF8091C1
:1033D0002701089508950895FECF0895089508954A
:1033E000F9CF08950F931F93CF93DF93F7DF0E94D8
:1033F0000A11F5DF01E912E0C0E0D0E08C2F0E9455
:10340000FC0FF80181938F0191E0811101C090E0E0
:10341000D92BCF5FCA3091F78D2FDF91CF911F91BC
:103420000F910895E82FF0E0EF56FD4F808190E076
:1034300021E030E002C0220F331F6A95E2F7282313
:10344000392381E0232B09F480E00895411111C054
:10345000E82FF0E0EF56FD4F81E090E09C0102C0C4
:10346000220F331F6A95E2F7B901609580816823C6
:1034700060830895CF93DF93EC017BD08C1B9D0B71
:10348000DF91CF910895CF92DF92EF92FF926B017F
:103490007C017BD06C197D098E099F09FF90EF900C
:1034A000DF90CF90089585B7806885BF85B7806825
:1034B00085BF08951F921FB61F9211248F939F936B
:1034C000AF93BF9380919B02811113C08091410300
:1034D00090914203A0914303B09144034196A11DF2
:1034E000B11D8093410390934203A0934303B09393
:1034F0004403BF91AF919F918F911F901FBE1F906A
:10350000189580914903843031F10E946B03109229
:103510009B0288E190E020E40FB6F894A895809390
:1035200060000FBE2093600083B7817F846083BFFB
:1035300083B7816083BF7894889583B78E7F83BF7C
:103540000FB6F894A8958091600088618093600020
:10355000109260000FBE08950E9475060C946F03D0
:1035600082E084BD93E095BD9AEF97BD80936E0095
:1035700008952FB7F8948091410390914203A09150
:103580004303B09144032FBF08952FB7F89460917F
:1035900041037091420380914303909144032FBFF4
:1035A000089578941F921FB61F9211248F939F93B2
:1035B000AF93BF938091410390914203A091430345
:1035C000B09144030196A11DB11D809341039093D6
:1035D0004203A0934303B0934403BF91AF919F91E3
:1035E0008F911F901FBE1F90189587E797E79093C4
:1035F00001088093000888E19AE00FB6F894A89536
:10360000809360000FBE90936000FFCF88E19AE046
:103610000FB6F894A895809360000FBE9093600059
:10362000FFCF8EE1669B02C08A95E1F7669BFECFD5
:103630000895769880E28A95F1F7769A0895FC01CC
:103640003BE03A95F1F798E020E080E031E040E19E
:103650004A95F1F7880F669B02C08160232742E0FC
:103660004A95F1F7000040E14A95F1F79A9579F70C
:1036700090E19A95F1F79CB132E03A95F1F70000AC
:1036800040E14A95F1F796FB992790F9922720811E
:10369000920F90830895A1E0B0E0E0E5FBE1D8C788
:1036A00019828C017C01E60EF11CBBDFCE01019674
:1036B000C6DFF80181938F01EE15FF05B1F781E0B8
:1036C0009981911180E02196E6E0DEC76E9A769AA4
:1036D00008956E98769AEE9AEAE6F0E080818F7C03
:1036E000808308956150770B91E001C0990F6A952E
:1036F000EAF7692F90E021E0611108C0911599F077
:10370000769A80E28A95F1F776980895362F3823D5
:10371000311539F0769A922730E23A95F1F76695AD
:10372000EBCF7698F9CF7698ECCFFF920F931F935B
:10373000CF93DF93EC018C01060F111DF99079DF17
:1037400068E08F2DCFDFC017D107C1F7CDB7DEB747
:10375000E5E09BC71F920F920FB60F9211240F93B3
:103760001F932F933F934F935F936F937F938F9309
:103770009F93AF93BF93EF93FF93CF93DF930F92FA
:10378000CDB7DEB719824DDFCE01019658DF082F85
:10379000069506950695982F92959570202F257081
:1037A000920F292F237096959695920F98279770D0
:1037B0008981892B811509F058C0053008F055C062
:1037C00080E18A95F1F7769A6E9A82E08A95F1F710
:1037D00000C0769888E0089F80011124D801AE5F70
:1037E000BE4F1696ED91FC9117973097A9F0609116
:1037F000AE017091AF0114962D913C911597260F53
:10380000371F11968D919C911297680F791F13960F
:103810004C9113978C910995F801EE5FFE4F6381EF
:10382000611549F02091AE013091AF0184819581FD
:10383000820F931F7ADFFDDE80E18A95F1F776989B
:103840006E98769A80E18A95F1F7F801EE5FFE4F67
:103850006081611549F02091AE013091AF01818105
:103860009281820F931F17DFDCDE0F90DF91CF91E3
:10387000FF91EF91BF91AF919F918F917F916F9148
:103880005F914F913F912F911F910F910F900FBE1C
:103890000F901F9018950F931F93CF93DF938C0178
:1038A00005970CF05EC0F8946E9A769885E08A953C
:1038B000F1F70000C02FC695C570802F8570C80F26
:1038C0008C2F8370C695C69593E0000F111F9A95B3
:1038D000E1F7C80FC8018C2BEC01ABDE00C068E03B
:1038E0008C2F00DF90E19A95F1F76E98769A669B9F
:1038F00031C087E090E066992FC0F801EE5FFE4F7F
:103900006381611559F02091AE013091AF0184813E
:103910009581820F931FBFDE811501F182DE80E267
:103920008A95F1F776986E9A90E19A95F1F7F801F9
:10393000EE5FFE4F6081611549F02091AE0130913C
:10394000AF0181819281820F931FEFDE72DE789446
:1039500081E008C000C0CBCF019749F46E9A769AF7
:10396000789480E0DF91CF911F910F91089500C06E
:10397000C2CF08950895282FCB01BA013091490391
:103980003430D1F42F702093E9002FEF3091E8000C
:1039900035FD06C035ED3A95F1F700002A95B1F7EF
:1039A0002091E80025FF08C040E050E0B3D18091AD
:1039B000E8008E778093E8000895BC0143E050E072
:1039C00082E0D9CFCF93DF93D82FC92FE4DC48E032
:1039D00050E06D2F7C2F81E0CEDF88E0ED2FFC2FB3
:1039E000ACE9B2E001900D928A95E1F7DF91CF91B9
:1039F000089580914803811107C012D369D3809143
:103A0000E20084608093E2000895109248030895D4
:103A1000A5DC81E0B1CC6091450381E0611101C07A
:103A200080E08ECC9091490381E0943009F080E0F1
:103A30006091450391CC42E061EC81E06DD242E2BD
:103A400061EC82E069D29091490381E0943009F001
:103A500080E06091450368CC80914B03893081F10F
:103A600048F4823009F495C0833009F456C081309F
:103A700041F008958A3009F47FC08B3009F467C0A3
:103A8000089580914A03813A09F046C08091E80088
:103A9000877F8093E80080914E0390914F03892B9C
:103AA00059F060E080E090E070E081D18091E80022
:103AB0008B778093E800089568E08CE992E0F4CF7A
:103AC00080914A03813241F580914E0390914F03DA
:103AD000029710F58091E800877F8093E80080913D
:103AE000E80082FF15C09091F3008091F2000297E8
:103AF00031F48091F100813011F0863019F4809119
:103B0000F1004CDC8091E8008B778093E80038C2AC
:103B1000809149038111E3CF089580914A03813A4E
:103B2000D9F780914E0390914F03892BA9F780918B
:103B3000E800877F8093E8008091E80080FFFCCF59
:103B40002ADC8093F1008091E8008E77DECF8091AF
:103B50004A03813209F780914E0390914F03892BDC
:103B6000D9F68091E800877F8093E80009D28091A0
:103B70004C0302DC0C94750680914A03813261F695
:103B80008091E800877F8093E800FAD180914D030F
:103B900013CC80914A03813A09F0BECF8091E800AE
:103BA000877F8093E8008091E80080FFFCCF0FDCE6
:103BB000C8CF84B7877F84BF0FB6F894A89580914B
:103BC0006000886180936000109260000FBE80E802
:103BD00090E00FB6F89480936100909361000FBE5F
:103BE000C9CB1ED275D2E2EEF0E080818460808382
:103BF0007894DEC48BE291E0B4CA809149038530A9
:103C000029F480914903853011F0A6CC089579DC20
:103C1000E9DB8115B1F380914703811591F364D0FD
:103C20000E947506EECF08959A014091500350917D
:103C3000510300C0AC01CB01D901252F332723301C
:103C40003105D1F070F42130310509F43EC0223045
:103C5000310569F48BE390E02CEC33E02D933C9339
:103C6000089521323105E9F02232310521F180E059
:103C700090E020E030E0F2CFCA019927413059F0BE
:103C80008230910559F0E8ECF3E0892B81F78491BB
:103C900090E09F01E3CFEAEAF3E0F9CFECE8F3E04C
:103CA000F6CF892BB9F06130710509F789E090E012
:103CB00027EF33E0D3CF892B91F061307105B9F64E
:103CC00082E390E029E134E0C9CF82E190E027E08F
:103CD00034E0C4CF89E090E02EED33E0BFCF84E440
:103CE00090E02BE434E0BACF80E189BD82E189BD68
:103CF00009B400FEFDCF8091D8008F7D8093D8005D
:103D00008091E00082608093E0008091E00081FD7E
:103D1000FCCF0895AF92BF92CF92DF92FF920F93A4
:103D20001F93CF93DF936C01EB018A0148D1F82EEA
:103D3000811123C00115110539F0F80180819181AD
:103D4000C81BD90BC80ED91EA12CB12C2097A9F0E5
:103D50008091E80085FD21C08091E8008E778093F6
:103D6000E80001151105A1F0F801808191818A0D0B
:103D70009B1D9183808385E0F82E8F2DDF91CF915D
:103D80001F910F91FF90DF90CF90BF90AF9008955B
:103D900016D18115E9F2F82EF0CFF60181916F016D
:103DA0008093F1002197FFEFAF1ABF0ACFCFFC013C
:103DB0009B0180915003909151038617970718F04B
:103DC000672B61F0C90140E0009771F441110CC00C
:103DD0008091E80082FF35C080E008958091E8007E
:103DE0008E778093E800EECF209149032115A9F149
:103DF0002530A9F12091E80023FD2DC02091E80095
:103E000022FDE6CF2091E80020FFDECF3091F300C5
:103E10002091F200009719F02830310558F041E068
:103E20002830310509F040E02091E8002E772093FA
:103E3000E800CACF41914093F10001972F5F3F4FB7
:103E4000E9CF80914903811541F0853041F080919F
:103E5000E80083FFBDCF81E0089582E0089583E00C
:103E60000895FC019B0180915003909151038617A6
:103E7000970718F0672B61F0C90140E0009771F4D3
:103E800041110CC08091E80082FF36C080E00895A7
:103E90008091E8008E778093E800EECF209149036F
:103EA0002115B1F12530B1F12091E80023FD2EC09C
:103EB0002091E80022FDE6CF2091E80020FFDECF30
:103EC0003091F3002091F200009719F0283031056D
:103ED00058F041E02830310509F040E02091E80039
:103EE0002E772093E800CACF44914093F100319699
:103EF00001972F5F3F4FE8CF80914903811541F033
:103F0000853041F08091E80083FFBCCF81E00895C7
:103F100082E0089583E00895982F973028F08F70FD
:103F20008093E90081E008959093E900242F762F93
:103F300050E0981731F07091EC002091ED00509115
:103F4000F00021FD02C09F5FE8CF3091EB003E7F83
:103F50003093EB003091ED003D7F3093ED003091D8
:103F6000EB0031603093EB007093EC002093ED0098
:103F70005093F0002091EE0027FDE5CF80E00895FA
:103F800080914A0387FF13C08091E80082FF06C03A
:103F90008091E8008B778093E80008958091490331
:103FA0008111F2CF0895809149038115D9F3809151
:103FB000E80080FFF8CF8091E8008E77ECCF209169
:103FC000E4003091E50095E6A9012091EC00822FF4
:103FD000817020FF06C08091E80080FF06C080E06D
:103FE00008952091E80022FD1AC0809149038115AF
:103FF00089F0853089F08091EB0085FD0FC020911C
:10400000E4003091E50042175307F9F29A95E1F682
:1040100084E0089582E0089583E0089581E00895A2
:1040200067D06ED0E0EEF0E0808181608083E8EDC3
:10403000F0E080818F77808319BCA7EDB0E08C9190
:104040008E7F8C9380818F7E8083109248030895A9
:104050000F931F93CF93DF934BD052D0C8EDD0E096
:1040600088818F77888388818068888388818F7D25
:10407000888319BC1092490310924503109247039C
:104080001092460300EE10E0F80180818B7F808360
:1040900088818160888342E060E080E03DDFE1EE7E
:1040A000F0E080818E7F8083E2EEF0E080818160AD
:1040B0008083808188608083F80180818E7F808307
:1040C000888180618883DF91CF911F910F9108953E
:1040D000E8EDF0E080818F7E8083E7EDF0E0808185
:1040E0008160808384E082BF81E080934803B0CF09
:1040F000E8EDF0E080818E7F80831092E2000895E9
:104100001092DA001092E10008951F920F920FB6FC
:104110000F9211242F933F934F935F936F937F934D
:104120008F939F93AF93BF93EF93FF938091E100A1
:1041300082FF0AC08091E20082FF06C08091E10008
:104140008B7F8093E10033D28091DA0080FF18C02A
:104150008091D80080FF14C08091DA008E7F809318
:10416000DA008091D90080FF8FC080E189BD82E1B3
:1041700089BD09B400FEFDCF81E08093490339DC9D
:104180008091E10080FF18C08091E20080FF14C0A0
:104190008091E2008E7F8093E2008091E200806156
:1041A0008093E2008091D80080628093D80019BC8F
:1041B00085E0809349032FDC8091E10084FF28C0D3
:1041C0008091E20084FF24C080E189BD82E189BD45
:1041D00009B400FEFDCF8091D8008F7D8093D80078
:1041E0008091E1008F7E8093E1008091E2008F7EDC
:1041F0008093E2008091E20081608093E2008091F0
:104200004503811509F445C084E0809349030ADC25
:104210008091E10083FF27C08091E20083FF23C0EB
:104220008091E100877F8093E10082E080934903E1
:10423000109245038091E1008E7F8093E100809190
:10424000E2008E7F8093E2008091E20080618093A3
:10425000E20042E060E080E05FDE8091F000886094
:104260008093F000D5DBFF91EF91BF91AF919F91CB
:104270008F917F916F915F914F913F912F910F900F
:104280000FBE0F901F90189519BC10924903BDDB0B
:1042900077CF8091E30087FF02C083E0B6CF81E053
:1042A000B4CF1F920F920FB60F921124EF92FF928C
:1042B0000F931F932F933F934F935F936F937F932E
:1042C0008F939F93AF93BF93CF93EF93FF9309EE99
:1042D00010E0F8018081C091EC008F70C795CC2769
:1042E000C795C82B108280EFE82EF12CF701808152
:1042F000877F808378941FD0F8011082F701808136
:1043000088608083CF70F801C083FF91EF91CF91D7
:10431000BF91AF919F918F917F916F915F914F91DD
:104320003F912F911F910F91FF90EF900F900FBE33
:104330000F901F901895AAE2B0E0E0EAF1E28BC17D
:104340008AE493E0FC0101962091F100208323E0B0
:1043500082359207B9F780DB8091E80083FF37C090
:1043600080914A0390914B039A3088F5E92FF0E051
:10437000EB5EFB4D5BC1803889F0823841F580915E
:104380004E038F70873018F58093E9008091EB0021
:1043900085FB882780F91092E90006C080914703C9
:1043A000880F90914603892B9091E800977F909316
:1043B000E8008093F1001092F1008091E8008E7780
:1043C00022C0811115C080914C03813001F1809190
:1043D000E80083FF0AC08091E800877F8093E800AF
:1043E0008091EB0080628093EB00AA96E3E04FC1DE
:1043F000823069F780914C03811581F01092E900B9
:104400008091E800877F8093E800BADDE0CF81E00B
:10441000933009F080E080934703F0CF80914E0302
:104420008F702FEF280F263090F68093E9002091AF
:10443000EB0020FFE3CF933031F48091EB008062FA
:104440008093EB00DBCF9091EB0090619093EB00B9
:1044500021E030E0A90102C0440F551F8A95E2F720
:104460004093EA001092EA008091EB008860E8CF68
:104470008111ADCF10914C031F778091E3008078BC
:10448000812B8093E3008091E800877F8093E80090
:1044900077DD8091E80080FFFCCF8091E3008068A9
:1044A0008093E30083E0111101C082E0809349030F
:1044B0008ECF8058823008F08ACF80914C03909143
:1044C0004D038C3D53E0950791F583E08A838AE2A2
:1044D00089834FB7F894DE01139620E03EE051E265
:1044E000E32FF0E050935700849120FF03C08295A2
:1044F0008F703F5F8F708A30C0F0895C90E08D9341
:104500009D932F5F243161F74FBF8091E800877F33
:104510008093E8006AE270E0CE01019648DC809169
:10452000E8008B778093E80052CF805DE7CF609101
:104530004E0370914F03AE014F5F5F4F75DBBC01BF
:10454000892B09F444CF8091E800877F8093E800AD
:1045500089819A8186DCE3CF803809F038CF809159
:10456000E800877F8093E800809145038093F10005
:1045700024CF81112CCF90914C03923008F027CF9B
:104580008091E800877F8093E80090934503F8DCF2
:1045900080914503811529F084E0809349034BDA2B
:1045A00016CF8091E30087FDF7CF81E0F6CF089525
:1045B000CF9380914903811591F08091E900C091DA
:1045C000EC008F70C795CC27C795C82B1092E900D7
:1045D0008091E80083FDAFDECF70C093E900CF91FA
:1045E00008951EDD109249030895E8EDF0E0808102
:1045F000806180838AE18A95F1F700C08091D900BB
:1046000081700895AA1BBB1B51E107C0AA1FBB1FE5
:10461000A617B70710F0A61BB70B881F991F5A954E
:10462000A9F780959095BC01CD010895EE0FFF1F6D
:104630000590F491E02D09942F923F924F925F9252
:104640006F927F928F929F92AF92BF92CF92DF92A2
:10465000EF92FF920F931F93CF93DF93CDB7DEB707
:10466000CA1BDB0B0FB6F894DEBF0FBECDBF09949B
:104670002A88398848885F846E847D848C849B84F2
:10468000AA84B984C884DF80EE80FD800C811B8100
:10469000AA81B981CE0FD11D0FB6F894DEBF0FBE2F
:1046A000CDBFED010895002E083090F0982F872F90
:1046B000762F652F542F432F322F22270850F4CF07
:1046C000220F331F441F551F661F771F881F991F16
:1046D0000A95B2F7002D089597FD1094002E08302A
:1046E00098F00850232F342F452F562F672F782FFF
:1046F000892F912DF4CF1594979587957795679588
:1047000057954795379527950A95AAF71124002DB7
:104710000895FB01DC0104C08D910190801921F402
:1047200041505040C8F7881B990B0895FB01DC01EC
:1047300002C001900D9241505040D8F70895F99968
:10474000FECF92BD81BDF89A992780B50895A6E164
:10475000B0E044E050E025C0A8E1B0E042E050E025
:1047600020C0262FF999FECF92BD81BDF89A0197FE
:1047700000B4021639F01FBA20BD0FB6F894FA9AA9
:10478000F99A0FBE08950396272FECDFEADF252F55
:10479000E9DF242FE7CF0196272FE4DFE2CFDC010A
:1047A000CB01FC01F999FECF06C0F2BDE1BDF89A3C
:1047B000319600B40D9241505040B8F70895F894E6
:1047C000FFCFF913FC130014041408140C14101474
:1047D000141418141C1420148E17FD179617601744
:1047E00064179A1768179E17AA177417F617781781
:1047F000AE177C17B217D7178017B617DE178617B4
:10480000BC17C4176C17A2177017A6178A17C01702
:10481000CE17E717F4175A17921704188C18921826
:104820007D18861898189E18A418BB21E121E7214D
:0E483000E121E72138225922E721AC22B922EA
:10483E003A02000000010000000000000005010027
:10484E00000004060000000000000B0A000000003B
:10485E000000002500252500000100D919E21CBA30
:10486E001CB91CDD1CE200E900EA00B500B600B779
:10487E0000CD008301CC008A019201940121022314
:10488E000224022502260227022A02B300B4006F78
:10489E000070009F01CB019F02A002E200E900EA36
:1048AE0000B500B600B700CD008301CC008A01929E
:1048BE000194012102230224022502260227022A44
:1048CE0002B300B4006F0070009F01CB019F02A0E5
:1048DE00029392F5F6F73134F4919094669758025C
:0A48EE000001901692169D16B516F3
:00000001FF
